{
  "_format": "hh-sol-artifact-1",
  "contractName": "Paymaster",
  "sourceName": "contracts/core/Paymaster.sol",
  "abi": [
    {
      "inputs": [
        {
          "internalType": "contract IEntryPoint",
          "name": "_entryPoint",
          "type": "address"
        },
        {
          "internalType": "address",
          "name": "_verifyingSigner",
          "type": "address"
        },
        {
          "internalType": "uint256",
          "name": "_dailyGasLimit",
          "type": "uint256"
        }
      ],
      "stateMutability": "nonpayable",
      "type": "constructor"
    },
    {
      "inputs": [],
      "name": "DailyLimitExceeded",
      "type": "error"
    },
    {
      "inputs": [],
      "name": "ECDSAInvalidSignature",
      "type": "error"
    },
    {
      "inputs": [
        {
          "internalType": "uint256",
          "name": "length",
          "type": "uint256"
        }
      ],
      "name": "ECDSAInvalidSignatureLength",
      "type": "error"
    },
    {
      "inputs": [
        {
          "internalType": "bytes32",
          "name": "s",
          "type": "bytes32"
        }
      ],
      "name": "ECDSAInvalidSignatureS",
      "type": "error"
    },
    {
      "inputs": [],
      "name": "InsufficientDeposit",
      "type": "error"
    },
    {
      "inputs": [],
      "name": "InvalidSignature",
      "type": "error"
    },
    {
      "inputs": [],
      "name": "OnlyEntryPoint",
      "type": "error"
    },
    {
      "inputs": [
        {
          "internalType": "address",
          "name": "owner",
          "type": "address"
        }
      ],
      "name": "OwnableInvalidOwner",
      "type": "error"
    },
    {
      "inputs": [
        {
          "internalType": "address",
          "name": "account",
          "type": "address"
        }
      ],
      "name": "OwnableUnauthorizedAccount",
      "type": "error"
    },
    {
      "inputs": [],
      "name": "PaymasterPaused",
      "type": "error"
    },
    {
      "inputs": [],
      "name": "TargetNotWhitelisted",
      "type": "error"
    },
    {
      "anonymous": false,
      "inputs": [
        {
          "indexed": false,
          "internalType": "uint256",
          "name": "oldLimit",
          "type": "uint256"
        },
        {
          "indexed": false,
          "internalType": "uint256",
          "name": "newLimit",
          "type": "uint256"
        }
      ],
      "name": "DailyLimitChanged",
      "type": "event"
    },
    {
      "anonymous": false,
      "inputs": [
        {
          "indexed": true,
          "internalType": "address",
          "name": "from",
          "type": "address"
        },
        {
          "indexed": false,
          "internalType": "uint256",
          "name": "amount",
          "type": "uint256"
        }
      ],
      "name": "Deposited",
      "type": "event"
    },
    {
      "anonymous": false,
      "inputs": [
        {
          "indexed": true,
          "internalType": "address",
          "name": "user",
          "type": "address"
        },
        {
          "indexed": false,
          "internalType": "uint256",
          "name": "gasUsed",
          "type": "uint256"
        },
        {
          "indexed": false,
          "internalType": "bytes32",
          "name": "userOpHash",
          "type": "bytes32"
        }
      ],
      "name": "GasSponsored",
      "type": "event"
    },
    {
      "anonymous": false,
      "inputs": [
        {
          "indexed": true,
          "internalType": "address",
          "name": "previousOwner",
          "type": "address"
        },
        {
          "indexed": true,
          "internalType": "address",
          "name": "newOwner",
          "type": "address"
        }
      ],
      "name": "OwnershipTransferred",
      "type": "event"
    },
    {
      "anonymous": false,
      "inputs": [
        {
          "indexed": false,
          "internalType": "bool",
          "name": "isPaused",
          "type": "bool"
        }
      ],
      "name": "Paused",
      "type": "event"
    },
    {
      "anonymous": false,
      "inputs": [
        {
          "indexed": true,
          "internalType": "address",
          "name": "oldSigner",
          "type": "address"
        },
        {
          "indexed": true,
          "internalType": "address",
          "name": "newSigner",
          "type": "address"
        }
      ],
      "name": "SignerChanged",
      "type": "event"
    },
    {
      "anonymous": false,
      "inputs": [
        {
          "indexed": true,
          "internalType": "address",
          "name": "target",
          "type": "address"
        },
        {
          "indexed": false,
          "internalType": "bool",
          "name": "whitelisted",
          "type": "bool"
        }
      ],
      "name": "TargetWhitelisted",
      "type": "event"
    },
    {
      "anonymous": false,
      "inputs": [
        {
          "indexed": true,
          "internalType": "address",
          "name": "to",
          "type": "address"
        },
        {
          "indexed": false,
          "internalType": "uint256",
          "name": "amount",
          "type": "uint256"
        }
      ],
      "name": "Withdrawn",
      "type": "event"
    },
    {
      "inputs": [],
      "name": "dailyGasLimitPerUser",
      "outputs": [
        {
          "internalType": "uint256",
          "name": "",
          "type": "uint256"
        }
      ],
      "stateMutability": "view",
      "type": "function"
    },
    {
      "inputs": [],
      "name": "deposit",
      "outputs": [],
      "stateMutability": "payable",
      "type": "function"
    },
    {
      "inputs": [],
      "name": "entryPoint",
      "outputs": [
        {
          "internalType": "contract IEntryPoint",
          "name": "",
          "type": "address"
        }
      ],
      "stateMutability": "view",
      "type": "function"
    },
    {
      "inputs": [
        {
          "internalType": "address",
          "name": "",
          "type": "address"
        }
      ],
      "name": "gasUsedByUser",
      "outputs": [
        {
          "internalType": "uint256",
          "name": "",
          "type": "uint256"
        }
      ],
      "stateMutability": "view",
      "type": "function"
    },
    {
      "inputs": [],
      "name": "getDeposit",
      "outputs": [
        {
          "internalType": "uint256",
          "name": "",
          "type": "uint256"
        }
      ],
      "stateMutability": "view",
      "type": "function"
    },
    {
      "inputs": [
        {
          "internalType": "address",
          "name": "user",
          "type": "address"
        }
      ],
      "name": "getRemainingDailyGas",
      "outputs": [
        {
          "internalType": "uint256",
          "name": "",
          "type": "uint256"
        }
      ],
      "stateMutability": "view",
      "type": "function"
    },
    {
      "inputs": [
        {
          "internalType": "address",
          "name": "",
          "type": "address"
        }
      ],
      "name": "lastGasResetTime",
      "outputs": [
        {
          "internalType": "uint256",
          "name": "",
          "type": "uint256"
        }
      ],
      "stateMutability": "view",
      "type": "function"
    },
    {
      "inputs": [],
      "name": "owner",
      "outputs": [
        {
          "internalType": "address",
          "name": "",
          "type": "address"
        }
      ],
      "stateMutability": "view",
      "type": "function"
    },
    {
      "inputs": [],
      "name": "paused",
      "outputs": [
        {
          "internalType": "bool",
          "name": "",
          "type": "bool"
        }
      ],
      "stateMutability": "view",
      "type": "function"
    },
    {
      "inputs": [
        {
          "internalType": "uint8",
          "name": "mode",
          "type": "uint8"
        },
        {
          "internalType": "bytes",
          "name": "context",
          "type": "bytes"
        },
        {
          "internalType": "uint256",
          "name": "actualGasCost",
          "type": "uint256"
        },
        {
          "internalType": "uint256",
          "name": "actualUserOpFeePerGas",
          "type": "uint256"
        }
      ],
      "name": "postOp",
      "outputs": [],
      "stateMutability": "nonpayable",
      "type": "function"
    },
    {
      "inputs": [],
      "name": "renounceOwnership",
      "outputs": [],
      "stateMutability": "nonpayable",
      "type": "function"
    },
    {
      "inputs": [
        {
          "internalType": "uint256",
          "name": "_limit",
          "type": "uint256"
        }
      ],
      "name": "setDailyGasLimit",
      "outputs": [],
      "stateMutability": "nonpayable",
      "type": "function"
    },
    {
      "inputs": [
        {
          "internalType": "bool",
          "name": "_paused",
          "type": "bool"
        }
      ],
      "name": "setPaused",
      "outputs": [],
      "stateMutability": "nonpayable",
      "type": "function"
    },
    {
      "inputs": [
        {
          "internalType": "address",
          "name": "_signer",
          "type": "address"
        }
      ],
      "name": "setSigner",
      "outputs": [],
      "stateMutability": "nonpayable",
      "type": "function"
    },
    {
      "inputs": [
        {
          "internalType": "address",
          "name": "target",
          "type": "address"
        },
        {
          "internalType": "bool",
          "name": "whitelisted",
          "type": "bool"
        }
      ],
      "name": "setWhitelistedTarget",
      "outputs": [],
      "stateMutability": "nonpayable",
      "type": "function"
    },
    {
      "inputs": [],
      "name": "totalGasSponsored",
      "outputs": [
        {
          "internalType": "uint256",
          "name": "",
          "type": "uint256"
        }
      ],
      "stateMutability": "view",
      "type": "function"
    },
    {
      "inputs": [
        {
          "internalType": "address",
          "name": "newOwner",
          "type": "address"
        }
      ],
      "name": "transferOwnership",
      "outputs": [],
      "stateMutability": "nonpayable",
      "type": "function"
    },
    {
      "inputs": [
        {
          "components": [
            {
              "internalType": "address",
              "name": "sender",
              "type": "address"
            },
            {
              "internalType": "uint256",
              "name": "nonce",
              "type": "uint256"
            },
            {
              "internalType": "bytes",
              "name": "initCode",
              "type": "bytes"
            },
            {
              "internalType": "bytes",
              "name": "callData",
              "type": "bytes"
            },
            {
              "internalType": "bytes32",
              "name": "accountGasLimits",
              "type": "bytes32"
            },
            {
              "internalType": "uint256",
              "name": "preVerificationGas",
              "type": "uint256"
            },
            {
              "internalType": "bytes32",
              "name": "gasFees",
              "type": "bytes32"
            },
            {
              "internalType": "bytes",
              "name": "paymasterAndData",
              "type": "bytes"
            },
            {
              "internalType": "bytes",
              "name": "signature",
              "type": "bytes"
            }
          ],
          "internalType": "struct IEntryPoint.PackedUserOperation",
          "name": "userOp",
          "type": "tuple"
        },
        {
          "internalType": "bytes32",
          "name": "userOpHash",
          "type": "bytes32"
        },
        {
          "internalType": "uint256",
          "name": "maxCost",
          "type": "uint256"
        }
      ],
      "name": "validatePaymasterUserOp",
      "outputs": [
        {
          "internalType": "bytes",
          "name": "context",
          "type": "bytes"
        },
        {
          "internalType": "uint256",
          "name": "validationData",
          "type": "uint256"
        }
      ],
      "stateMutability": "nonpayable",
      "type": "function"
    },
    {
      "inputs": [],
      "name": "verifyingSigner",
      "outputs": [
        {
          "internalType": "address",
          "name": "",
          "type": "address"
        }
      ],
      "stateMutability": "view",
      "type": "function"
    },
    {
      "inputs": [
        {
          "internalType": "address",
          "name": "",
          "type": "address"
        }
      ],
      "name": "whitelistedTargets",
      "outputs": [
        {
          "internalType": "bool",
          "name": "",
          "type": "bool"
        }
      ],
      "stateMutability": "view",
      "type": "function"
    },
    {
      "inputs": [
        {
          "internalType": "address payable",
          "name": "to",
          "type": "address"
        },
        {
          "internalType": "uint256",
          "name": "amount",
          "type": "uint256"
        }
      ],
      "name": "withdrawTo",
      "outputs": [],
      "stateMutability": "nonpayable",
      "type": "function"
    },
    {
      "stateMutability": "payable",
      "type": "receive"
    }
  ],
  "bytecode": "0x60a06040523480156200001157600080fd5b506040516200168138038062001681833981016040819052620000349162000100565b33806200005b57604051631e4fbdf760e01b81526000600482015260240160405180910390fd5b620000668162000097565b506001600160a01b03928316608052600180546001600160a01b031916929093169190911790915560035562000148565b600080546001600160a01b038381166001600160a01b0319831681178455604051919092169283917f8be0079c531659141344cd1fd0a4f28419497f9722a3daafe3b4186f6b6457e09190a35050565b6001600160a01b0381168114620000fd57600080fd5b50565b6000806000606084860312156200011657600080fd5b83516200012381620000e7565b60208501519093506200013681620000e7565b80925050604084015190509250925092565b6080516114ec6200019560003960008181610148015281816103e2015281816105af0152818161072c015281816107a5015281816109d701528181610ae10152610b6e01526114ec6000f3fe60806040526004361061012e5760003560e01c80637c627b21116100ab578063c399ec881161006f578063c399ec881461041a578063d0e30db01461042f578063da1c18ed14610437578063e0f6dfca14610464578063f2fde38b1461047a578063fb9ed2571461049a57600080fd5b80637c627b211461036557806388930c77146103855780638da5cb5b146103b2578063b0d691fe146103d0578063b39b2c8a1461040457600080fd5b80632ad59123116100f25780632ad59123146102aa57806352b7512c146102d85780635c975abb146103065780636c19e78314610330578063715018a61461035057600080fd5b806316c38b3c146101eb5780631d26480c1461020d578063205c28781461022d57806323d9ac9b1461024d578063298141f91461028a57600080fd5b366101e65760405163b760faf960e01b81523060048201527f00000000000000000000000000000000000000000000000000000000000000006001600160a01b03169063b760faf99034906024016000604051808303818588803b15801561019557600080fd5b505af11580156101a9573d6000803e3d6000fd5b50506040513481523393507f2da466a7b24304f47e87fa2e1e5a81b9831ce54fec19055ce277ca2f39ba42c49250602001905060405180910390a2005b600080fd5b3480156101f757600080fd5b5061020b610206366004611162565b6104ca565b005b34801561021957600080fd5b5061020b610228366004611199565b610519565b34801561023957600080fd5b5061020b6102483660046111ce565b610581565b34801561025957600080fd5b5060015461026d906001600160a01b031681565b6040516001600160a01b0390911681526020015b60405180910390f35b34801561029657600080fd5b5061020b6102a53660046111fa565b610646565b3480156102b657600080fd5b506102ca6102c5366004611213565b610693565b604051908152602001610281565b3480156102e457600080fd5b506102f86102f3366004611230565b61071d565b604051610281929190611284565b34801561031257600080fd5b506007546103209060ff1681565b6040519015158152602001610281565b34801561033c57600080fd5b5061020b61034b366004611213565b61095e565b34801561035c57600080fd5b5061020b6109b8565b34801561037157600080fd5b5061020b6103803660046112d9565b6109cc565b34801561039157600080fd5b506102ca6103a0366004611213565b60026020526000908152604090205481565b3480156103be57600080fd5b506000546001600160a01b031661026d565b3480156103dc57600080fd5b5061026d7f000000000000000000000000000000000000000000000000000000000000000081565b34801561041057600080fd5b506102ca60035481565b34801561042657600080fd5b506102ca610ac9565b61020b610b59565b34801561044357600080fd5b506102ca610452366004611213565b60046020526000908152604090205481565b34801561047057600080fd5b506102ca60065481565b34801561048657600080fd5b5061020b610495366004611213565b610c0c565b3480156104a657600080fd5b506103206104b5366004611213565b60056020526000908152604090205460ff1681565b6104d2610c4f565b6007805460ff19168215159081179091556040519081527f0e2fb031ee032dc02d8011dc50b816eb450cf856abd8261680dac74f72165bd29060200160405180910390a150565b610521610c4f565b6001600160a01b038216600081815260056020908152604091829020805460ff191685151590811790915591519182527ff6c76eeb7c8ff50ae11742b7c9c659668fd5450291aa2e196914e251b7786abe91015b60405180910390a25050565b610589610c4f565b60405163040b850f60e31b81526001600160a01b038381166004830152602482018390527f0000000000000000000000000000000000000000000000000000000000000000169063205c287890604401600060405180830381600087803b1580156105f357600080fd5b505af1158015610607573d6000803e3d6000fd5b50505050816001600160a01b03167f7084f5476618d8e60b11ef0d7d3f06914655adb8793e28ff7f018d4c76d505d58260405161057591815260200190565b61064e610c4f565b600380549082905560408051828152602081018490527f070dc0f9e511fdc888935179b3eba0bb274ccb33e0572454d85d32a70219dd62910160405180910390a15050565b6001600160a01b03811660009081526004602052604081205462015180906106bb9042611389565b106106c857505060035490565b6003546001600160a01b038316600090815260026020526040902054106106f157506000919050565b6001600160a01b0382166000908152600260205260409020546003546107179190611389565b92915050565b60606000336001600160a01b037f0000000000000000000000000000000000000000000000000000000000000000161461076a5760405163bd07c55160e01b815260040160405180910390fd5b60075460ff161561078e576040516326341fb360e21b815260040160405180910390fd5b6040516370a0823160e01b815230600482015283907f00000000000000000000000000000000000000000000000000000000000000006001600160a01b0316906370a0823190602401602060405180830381865afa1580156107f4573d6000803e3d6000fd5b505050506040513d601f19601f82011682018060405250810190610818919061139c565b10156108375760405163070f6eed60e11b815260040160405180910390fd5b6000808061085061084b60e08a018a6113b5565b610c7c565b9250925092506000610863898585610d3b565b905060006108a8836108a2847f19457468657265756d205369676e6564204d6573736167653a0a3332000000006000908152601c91909152603c902090565b90610e26565b6001549091506001600160a01b038083169116146108eb576108cc60018686610e50565b6040518060200160405280600081525090965096505050505050610956565b6109016108fb60208c018c611213565b89610e88565b61090e60208b018b611213565b604080516001600160a01b0390921660208301528101899052606081018a9052608001604051602081830303815290604052965061094e60008686610e50565b955050505050505b935093915050565b610966610c4f565b600180546001600160a01b038381166001600160a01b0319831681179093556040519116919082907feeb293e1f8f3a9db91ade748726387ed1352ca78f5430c5f06fe3d1e1ad5057990600090a35050565b6109c0610c4f565b6109ca6000610f28565b565b336001600160a01b037f00000000000000000000000000000000000000000000000000000000000000001614610a155760405163bd07c55160e01b815260040160405180910390fd5b600080610a2485870187611403565b92505091508360026000846001600160a01b03166001600160a01b031681526020019081526020016000206000828254610a5e9190611423565b925050819055508360066000828254610a779190611423565b909155505060408051858152602081018390526001600160a01b038416917f2fb7953a2761d462ccf3d6f485cebb8750f76f52c32092568d44d7bd531461d2910160405180910390a250505050505050565b6040516370a0823160e01b81523060048201526000907f00000000000000000000000000000000000000000000000000000000000000006001600160a01b0316906370a0823190602401602060405180830381865afa158015610b30573d6000803e3d6000fd5b505050506040513d601f19601f82011682018060405250810190610b54919061139c565b905090565b60405163b760faf960e01b81523060048201527f00000000000000000000000000000000000000000000000000000000000000006001600160a01b03169063b760faf99034906024016000604051808303818588803b158015610bbb57600080fd5b505af1158015610bcf573d6000803e3d6000fd5b50506040513481523393507f2da466a7b24304f47e87fa2e1e5a81b9831ce54fec19055ce277ca2f39ba42c49250602001905060405180910390a2565b610c14610c4f565b6001600160a01b038116610c4357604051631e4fbdf760e01b8152600060048201526024015b60405180910390fd5b610c4c81610f28565b50565b6000546001600160a01b031633146109ca5760405163118cdaa760e01b8152336004820152602401610c3a565b600080606084601485610c90826006611423565b92610c9d93929190611436565b610ca691611460565b60d01c92508484610cb960146006611423565b90610cc66014600c611423565b92610cd393929190611436565b610cdc91611460565b60d01c91508484610cef6014600c611423565b610cfa928290611436565b8080601f0160208091040260200160405190810160405280939291908181526020018383808284376000920191909152509598949750919550929350505050565b6000610d4a6020850185611213565b6020850135610d5c60408701876113b5565b604051610d6a929190611490565b604051908190039020610d8060608801886113b5565b604051610d8e929190611490565b604080519182900382206001600160a01b03909516602083015281019290925260608201526080808201929092529085013560a08083019190915285013560c08083019190915285013560e0820152466101008201523061012082015265ffffffffffff8085166101408301528316610160820152610180016040516020818303038152906040528051906020012090509392505050565b600080600080610e368686610f78565b925092509250610e468282610fc5565b5090949350505050565b600060d08265ffffffffffff16901b60a08465ffffffffffff16901b85610e78576000610e7b565b60015b60ff161717949350505050565b6001600160a01b0382166000908152600460205260409020546201518090610eb09042611389565b10610ede576001600160a01b0382166000908152600260209081526040808320839055600490915290204290555b6003546001600160a01b038316600090815260026020526040902054610f05908390611423565b1115610f2457604051630652f4c560e21b815260040160405180910390fd5b5050565b600080546001600160a01b038381166001600160a01b0319831681178455604051919092169283917f8be0079c531659141344cd1fd0a4f28419497f9722a3daafe3b4186f6b6457e09190a35050565b60008060008351604103610fb25760208401516040850151606086015160001a610fa48882858561107e565b955095509550505050610fbe565b50508151600091506002905b9250925092565b6000826003811115610fd957610fd96114a0565b03610fe2575050565b6001826003811115610ff657610ff66114a0565b036110145760405163f645eedf60e01b815260040160405180910390fd5b6002826003811115611028576110286114a0565b036110495760405163fce698f760e01b815260048101829052602401610c3a565b600382600381111561105d5761105d6114a0565b03610f24576040516335e2f38360e21b815260048101829052602401610c3a565b600080807f7fffffffffffffffffffffffffffffff5d576e7357a4501ddfe92f46681b20a08411156110b95750600091506003905082611143565b604080516000808252602082018084528a905260ff891692820192909252606081018790526080810186905260019060a0016020604051602081039080840390855afa15801561110d573d6000803e3d6000fd5b5050604051601f1901519150506001600160a01b03811661113957506000925060019150829050611143565b9250600091508190505b9450945094915050565b8035801515811461115d57600080fd5b919050565b60006020828403121561117457600080fd5b61117d8261114d565b9392505050565b6001600160a01b0381168114610c4c57600080fd5b600080604083850312156111ac57600080fd5b82356111b781611184565b91506111c56020840161114d565b90509250929050565b600080604083850312156111e157600080fd5b82356111ec81611184565b946020939093013593505050565b60006020828403121561120c57600080fd5b5035919050565b60006020828403121561122557600080fd5b813561117d81611184565b60008060006060848603121561124557600080fd5b833567ffffffffffffffff81111561125c57600080fd5b8401610120818703121561126f57600080fd5b95602085013595506040909401359392505050565b604081526000835180604084015260005b818110156112b25760208187018101516060868401015201611295565b506000606082850101526060601f19601f8301168401019150508260208301529392505050565b6000806000806000608086880312156112f157600080fd5b853560ff8116811461130257600080fd5b9450602086013567ffffffffffffffff8082111561131f57600080fd5b818801915088601f83011261133357600080fd5b81358181111561134257600080fd5b89602082850101111561135457600080fd5b9699602092909201985095966040810135965060600135945092505050565b634e487b7160e01b600052601160045260246000fd5b8181038181111561071757610717611373565b6000602082840312156113ae57600080fd5b5051919050565b6000808335601e198436030181126113cc57600080fd5b83018035915067ffffffffffffffff8211156113e757600080fd5b6020019150368190038213156113fc57600080fd5b9250929050565b60008060006060848603121561141857600080fd5b833561126f81611184565b8082018082111561071757610717611373565b6000808585111561144657600080fd5b8386111561145357600080fd5b5050820193919092039150565b6001600160d01b031981358181169160068510156114885780818660060360031b1b83161692505b505092915050565b8183823760009101908152919050565b634e487b7160e01b600052602160045260246000fdfea26469706673582212200fe9f1222f191ad5cbdd76c0f1e4db59b0ea31534c229e8269b2bca3afcec02064736f6c63430008180033",
  "linkReferences": {},
  "deployedLinkReferences": {}
}