{
  "_format": "hh-sol-artifact-1",
  "contractName": "SimpleAccountFactory",
  "sourceName": "contracts/core/SimpleAccountFactory.sol",
  "abi": [
    {
      "inputs": [
        {
          "internalType": "contract IEntryPoint",
          "name": "_entryPoint",
          "type": "address"
        }
      ],
      "stateMutability": "nonpayable",
      "type": "constructor"
    },
    {
      "anonymous": false,
      "inputs": [
        {
          "indexed": true,
          "internalType": "address",
          "name": "account",
          "type": "address"
        },
        {
          "indexed": true,
          "internalType": "address",
          "name": "owner",
          "type": "address"
        },
        {
          "indexed": false,
          "internalType": "string",
          "name": "platform",
          "type": "string"
        },
        {
          "indexed": false,
          "internalType": "string",
          "name": "socialId",
          "type": "string"
        },
        {
          "indexed": false,
          "internalType": "bytes32",
          "name": "salt",
          "type": "bytes32"
        }
      ],
      "name": "AccountCreated",
      "type": "event"
    },
    {
      "inputs": [
        {
          "internalType": "string",
          "name": "platform",
          "type": "string"
        },
        {
          "internalType": "string",
          "name": "socialId",
          "type": "string"
        }
      ],
      "name": "accountExists",
      "outputs": [
        {
          "internalType": "bool",
          "name": "",
          "type": "bool"
        }
      ],
      "stateMutability": "view",
      "type": "function"
    },
    {
      "inputs": [],
      "name": "accountImplementation",
      "outputs": [
        {
          "internalType": "contract SimpleAccount",
          "name": "",
          "type": "address"
        }
      ],
      "stateMutability": "view",
      "type": "function"
    },
    {
      "inputs": [
        {
          "internalType": "address",
          "name": "owner",
          "type": "address"
        },
        {
          "internalType": "string",
          "name": "platform",
          "type": "string"
        },
        {
          "internalType": "string",
          "name": "socialId",
          "type": "string"
        }
      ],
      "name": "createAccount",
      "outputs": [
        {
          "internalType": "contract SimpleAccount",
          "name": "account",
          "type": "address"
        }
      ],
      "stateMutability": "nonpayable",
      "type": "function"
    },
    {
      "inputs": [
        {
          "internalType": "string",
          "name": "platform",
          "type": "string"
        },
        {
          "internalType": "string",
          "name": "socialId",
          "type": "string"
        }
      ],
      "name": "getAccountBySocialId",
      "outputs": [
        {
          "internalType": "address",
          "name": "",
          "type": "address"
        }
      ],
      "stateMutability": "view",
      "type": "function"
    },
    {
      "inputs": [
        {
          "internalType": "address",
          "name": "owner",
          "type": "address"
        },
        {
          "internalType": "string",
          "name": "platform",
          "type": "string"
        },
        {
          "internalType": "string",
          "name": "socialId",
          "type": "string"
        }
      ],
      "name": "getAddress",
      "outputs": [
        {
          "internalType": "address",
          "name": "",
          "type": "address"
        }
      ],
      "stateMutability": "view",
      "type": "function"
    },
    {
      "inputs": [
        {
          "internalType": "bytes32",
          "name": "",
          "type": "bytes32"
        }
      ],
      "name": "socialIdToAccount",
      "outputs": [
        {
          "internalType": "address",
          "name": "",
          "type": "address"
        }
      ],
      "stateMutability": "view",
      "type": "function"
    }
  ],
  "bytecode": "0x60a060405234801561001057600080fd5b5060405161282d38038061282d83398101604081905261002f91610088565b8060405161003c9061007b565b6001600160a01b039091168152602001604051809103906000f080158015610068573d6000803e3d6000fd5b506001600160a01b0316608052506100b8565b611b6480610cc983390190565b60006020828403121561009a57600080fd5b81516001600160a01b03811681146100b157600080fd5b9392505050565b608051610be96100e06000396000818160a90152818161018d015261028f0152610be96000f3fe60806040523480156200001157600080fd5b50600436106200006a5760003560e01c806307476a2a146200006f57806311464fbe14620000a35780632e9d5f2c14620000cb5780634dbe445414620000f7578063a6a95286146200010e578063d7f5c52f1462000125575b600080fd5b62000086620000803660046200050f565b6200014d565b6040516001600160a01b0390911681526020015b60405180910390f35b620000867f000000000000000000000000000000000000000000000000000000000000000081565b62000086620000dc366004620005a6565b6000602081905290815260409020546001600160a01b031681565b62000086620001083660046200050f565b6200024b565b620000866200011f366004620005c0565b620003ad565b6200013c62000136366004620005c0565b620003e0565b60405190151581526020016200009a565b6000806200015e8686868662000431565b90506200023e81604051806020016200017790620004b5565b6020820181038252601f19601f820116604052507f00000000000000000000000000000000000000000000000000000000000000008a8a8a8a8a604051602401620001c79594939291906200065c565b60408051601f19818403018152918152602080830180516001600160e01b0316639065714760e01b17905290516200020293929101620006ca565b60408051601f19818403018152908290526200022292916020016200070e565b604051602081830303815290604052805190602001206200046c565b9150505b95945050505050565b6000806200025c8686868662000431565b905060006200026f88888888886200014d565b90506001600160a01b0381163b156200028c579150620002429050565b817f00000000000000000000000000000000000000000000000000000000000000008989898989604051602401620002c99594939291906200065c565b60408051601f198184030181529181526020820180516001600160e01b0316639065714760e01b17905251620002ff90620004b5565b6200030c929190620006ca565b8190604051809103906000f59050801580156200032d573d6000803e3d6000fd5b506000838152602081905260409081902080546001600160a01b0319166001600160a01b0384811691821790925591519295508a16917fcfe42bd153fcffbf921efdee94cc950000f1b3830fc440571803fb27fcc4a4aa906200039a908b908b908b908b908a9062000741565b60405180910390a3505095945050505050565b600080620003be8686868662000431565b6000908152602081905260409020546001600160a01b03169695505050505050565b600080620003f18686868662000431565b6000818152602081905260409020549091506001600160a01b031680158015906200042657506000816001600160a01b03163b115b979650505050505050565b6000848484846040516020016200044c94939291906200077f565b604051602081830303815290604052805190602001209050949350505050565b60006200047b83833062000482565b9392505050565b6000604051836040820152846020820152828152600b8101905060ff8153605590206001600160a01b0316949350505050565b61040980620007ab83390190565b60008083601f840112620004d657600080fd5b50813567ffffffffffffffff811115620004ef57600080fd5b6020830191508360208285010111156200050857600080fd5b9250929050565b6000806000806000606086880312156200052857600080fd5b85356001600160a01b03811681146200054057600080fd5b9450602086013567ffffffffffffffff808211156200055e57600080fd5b6200056c89838a01620004c3565b909650945060408801359150808211156200058657600080fd5b506200059588828901620004c3565b969995985093965092949392505050565b600060208284031215620005b957600080fd5b5035919050565b60008060008060408587031215620005d757600080fd5b843567ffffffffffffffff80821115620005f057600080fd5b620005fe88838901620004c3565b909650945060208701359150808211156200061857600080fd5b506200062787828801620004c3565b95989497509550505050565b81835281816020850137506000828201602090810191909152601f909101601f19169091010190565b6001600160a01b038616815260606020820181905260009062000683908301868862000633565b82810360408401526200069881858762000633565b98975050505050505050565b60005b83811015620006c1578181015183820152602001620006a7565b50506000910152565b60018060a01b03831681526040602082015260008251806040840152620006f9816060850160208701620006a4565b601f01601f1916919091016060019392505050565b6000835162000722818460208801620006a4565b83519083019062000738818360208801620006a4565b01949350505050565b6060815260006200075760608301878962000633565b82810360208401526200076c81868862000633565b9150508260408301529695505050505050565b838582376000848201601d60f91b81528385600183013760009301600101928352509094935050505056fe608060405260405161040938038061040983398101604081905261002291610267565b61002c8282610033565b5050610351565b61003c82610092565b6040516001600160a01b038316907fbc7cd75a20ee27fd9adebab32041f755214dbc6bffa90cc0225b39da2e5c2d3b90600090a280511561008657610081828261010e565b505050565b61008e610185565b5050565b806001600160a01b03163b6000036100cd57604051634c9c8ce360e01b81526001600160a01b03821660048201526024015b60405180910390fd5b7f360894a13ba1a3210667c828492db98dca3e2076cc3735a920a3ca505d382bbc80546001600160a01b0319166001600160a01b0392909216919091179055565b6060600080846001600160a01b03168460405161012b9190610335565b600060405180830381855af49150503d8060008114610166576040519150601f19603f3d011682016040523d82523d6000602084013e61016b565b606091505b50909250905061017c8583836101a6565b95945050505050565b34156101a45760405163b398979f60e01b815260040160405180910390fd5b565b6060826101bb576101b682610205565b6101fe565b81511580156101d257506001600160a01b0384163b155b156101fb57604051639996b31560e01b81526001600160a01b03851660048201526024016100c4565b50805b9392505050565b80511561021457805160208201fd5b60405163d6bda27560e01b815260040160405180910390fd5b634e487b7160e01b600052604160045260246000fd5b60005b8381101561025e578181015183820152602001610246565b50506000910152565b6000806040838503121561027a57600080fd5b82516001600160a01b038116811461029157600080fd5b60208401519092506001600160401b03808211156102ae57600080fd5b818501915085601f8301126102c257600080fd5b8151818111156102d4576102d461022d565b604051601f8201601f19908116603f011681019083821181831017156102fc576102fc61022d565b8160405282815288602084870101111561031557600080fd5b610326836020830160208801610243565b80955050505050509250929050565b60008251610347818460208701610243565b9190910192915050565b60aa8061035f6000396000f3fe6080604052600a600c565b005b60186014601a565b6051565b565b6000604c7f360894a13ba1a3210667c828492db98dca3e2076cc3735a920a3ca505d382bbc546001600160a01b031690565b905090565b3660008037600080366000845af43d6000803e808015606f573d6000f35b3d6000fdfea264697066735822122027357b1f373b72c62701c76d185de2384ffdfcc8d01fd76a8ddc4b681d3e01f364736f6c63430008180033a2646970667358221220356e0452e6e2d71a3ed55d00d5271686fa86ee8a62e5defbe6ab31ad7392466464736f6c6343000818003360c0604052306080523480156200001557600080fd5b5060405162001b6438038062001b6483398101604081905262000038916200010a565b6001600160a01b03811660a0526200004f62000056565b506200013c565b7ff0c57e16840df040f15088dc2f81fe391c3923bec73e23a9662efc9c229c6a00805468010000000000000000900460ff1615620000a75760405163f92ee8a960e01b815260040160405180910390fd5b80546001600160401b0390811614620001075780546001600160401b0319166001600160401b0390811782556040519081527fc7f505b2f371ae2175ee4913f4499e1f2633a7b5936321eed1cdaeb6115181d29060200160405180910390a15b50565b6000602082840312156200011d57600080fd5b81516001600160a01b03811681146200013557600080fd5b9392505050565b60805160a0516119bc620001a86000396000818161027a015281816103130152818161041c0152818161065a015281816107200152818161095201528181610a6c01528181610b040152610cb5015260008181610d2c01528181610d550152610ec001526119bc6000f3fe6080604052600436106100f75760003560e01c80638da5cb5b1161008a578063b61d27f611610059578063b61d27f61461029c578063c399ec88146102bc578063d087d288146102d1578063f2fde38b146102e657600080fd5b80638da5cb5b146101df5780639065714714610217578063ad3cb1cc14610237578063b0d691fe1461026857600080fd5b80634bde38c8116100c65780634bde38c8146101825780634d44560d146101975780634f1ef286146101b757806352d1902d146101ca57600080fd5b806319822f7c1461010357806344d209b71461013657806347e1da2a146101585780634a58db191461017a57600080fd5b366100fe57005b600080fd5b34801561010f57600080fd5b5061012361011e3660046112fa565b610306565b6040519081526020015b60405180910390f35b34801561014257600080fd5b5061014b61036d565b60405161012d9190611372565b34801561016457600080fd5b506101786101733660046113f1565b6103fb565b005b610178610645565b34801561018e57600080fd5b5061014b6106c2565b3480156101a357600080fd5b506101786101b23660046114a0565b6106cf565b6101786101c53660046114e2565b610780565b3480156101d657600080fd5b5061012361079f565b3480156101eb57600080fd5b506000546101ff906001600160a01b031681565b6040516001600160a01b03909116815260200161012d565b34801561022357600080fd5b506101786102323660046115e8565b6107bc565b34801561024357600080fd5b5061014b604051806040016040528060058152602001640352e302e360dc1b81525081565b34801561027457600080fd5b506101ff7f000000000000000000000000000000000000000000000000000000000000000081565b3480156102a857600080fd5b506101786102b736600461166b565b610931565b3480156102c857600080fd5b50610123610a54565b3480156102dd57600080fd5b50610123610ae5565b3480156102f257600080fd5b506101786103013660046116c7565b610b3b565b6000336001600160a01b037f000000000000000000000000000000000000000000000000000000000000000016146103515760405163bd07c55160e01b815260040160405180910390fd5b61035b8484610bfc565b905061036682610cab565b9392505050565b6002805461037a906116e4565b80601f01602080910402602001604051908101604052809291908181526020018280546103a6906116e4565b80156103f35780601f106103c8576101008083540402835291602001916103f3565b820191906000526020600020905b8154815290600101906020018083116103d657829003601f168201915b505050505081565b6000546001600160a01b0316331480159061043f5750336001600160a01b037f00000000000000000000000000000000000000000000000000000000000000001614155b1561045d5760405163c5ed84e560e01b815260040160405180910390fd5b848314801561046b57508281145b6104ae5760405162461bcd60e51b815260206004820152600f60248201526e098cadccee8d040dad2e6dac2e8c6d608b1b60448201526064015b60405180910390fd5b60005b8581101561063c576000808888848181106104ce576104ce61171e565b90506020020160208101906104e391906116c7565b6001600160a01b03168787858181106104fe576104fe61171e565b905060200201358686868181106105175761051761171e565b90506020028101906105299190611734565b60405161053792919061177b565b60006040518083038185875af1925050503d8060008114610574576040519150601f19603f3d011682016040523d82523d6000602084013e610579565b606091505b50915091508161058b57805160208201fd5b88888481811061059d5761059d61171e565b90506020020160208101906105b291906116c7565b6001600160a01b03167f4232d48319210b7bc959a61fd7785051da1497df2a1400e3340f42a8a6efd5418888868181106105ee576105ee61171e565b905060200201358787878181106106075761060761171e565b90506020028101906106199190611734565b8660405161062a94939291906117b4565b60405180910390a250506001016104b1565b50505050505050565b60405163b760faf960e01b81523060048201527f00000000000000000000000000000000000000000000000000000000000000006001600160a01b03169063b760faf99034906024016000604051808303818588803b1580156106a757600080fd5b505af11580156106bb573d6000803e3d6000fd5b5050505050565b6001805461037a906116e4565b6000546001600160a01b031633146106fa57604051635fc483c560e01b815260040160405180910390fd5b60405163040b850f60e31b81526001600160a01b038381166004830152602482018390527f0000000000000000000000000000000000000000000000000000000000000000169063205c287890604401600060405180830381600087803b15801561076457600080fd5b505af1158015610778573d6000803e3d6000fd5b505050505050565b610788610d21565b61079182610dc8565b61079b8282610df3565b5050565b60006107a9610eb5565b5060008051602061196783398151915290565b60006107c6610efe565b805490915060ff600160401b820416159067ffffffffffffffff166000811580156107ee5750825b905060008267ffffffffffffffff16600114801561080b5750303b155b905081158015610819575080155b156108375760405163f92ee8a960e01b815260040160405180910390fd5b845467ffffffffffffffff19166001178555831561086157845460ff60401b1916600160401b1785555b600080546001600160a01b0319166001600160a01b038c161790556001610889898b83611829565b506002610897878983611829565b50896001600160a01b03167fdbec44ad33596908b242fa02ac46283658a5addd013d416f5a22337e4965961e8a8a8a8a6040516108d794939291906118e9565b60405180910390a2831561092557845460ff60401b19168555604051600181527fc7f505b2f371ae2175ee4913f4499e1f2633a7b5936321eed1cdaeb6115181d29060200160405180910390a15b50505050505050505050565b6000546001600160a01b031633148015906109755750336001600160a01b037f00000000000000000000000000000000000000000000000000000000000000001614155b156109935760405163c5ed84e560e01b815260040160405180910390fd5b600080856001600160a01b03168585856040516109b192919061177b565b60006040518083038185875af1925050503d80600081146109ee576040519150601f19603f3d011682016040523d82523d6000602084013e6109f3565b606091505b509150915081610a0557805160208201fd5b856001600160a01b03167f4232d48319210b7bc959a61fd7785051da1497df2a1400e3340f42a8a6efd54186868686604051610a4494939291906117b4565b60405180910390a2505050505050565b6040516370a0823160e01b81523060048201526000907f00000000000000000000000000000000000000000000000000000000000000006001600160a01b0316906370a08231906024015b602060405180830381865afa158015610abc573d6000803e3d6000fd5b505050506040513d601f19601f82011682018060405250810190610ae0919061191b565b905090565b604051631aab3f0d60e11b8152306004820152600060248201819052907f00000000000000000000000000000000000000000000000000000000000000006001600160a01b0316906335567e1a90604401610a9f565b6000546001600160a01b03163314610b6657604051635fc483c560e01b815260040160405180910390fd5b6001600160a01b038116610bac5760405162461bcd60e51b815260206004820152600d60248201526c24b73b30b634b21037bbb732b960991b60448201526064016104a5565b600080546001600160a01b038381166001600160a01b0319831681178455604051919092169283917fb532073b38c83145e3e5135377a08bf9aab55bc0fd7c1179cd4fb995d2a5159c9190a35050565b7f19457468657265756d205369676e6564204d6573736167653a0a3332000000006000908152601c829052603c81206000610c7b610c3e610100870187611734565b8080601f0160208091040260200160405190810160405280939291908181526020018383808284376000920191909152508693925050610f279050565b6000549091506001600160a01b03808316911614610c9e57600192505050610ca5565b6000925050505b92915050565b8015610d1e5760007f00000000000000000000000000000000000000000000000000000000000000006001600160a01b03168260405160006040518083038185875af1925050503d80600081146106bb576040519150601f19603f3d011682016040523d82523d6000602084013e6106bb565b50565b306001600160a01b037f0000000000000000000000000000000000000000000000000000000000000000161480610da857507f00000000000000000000000000000000000000000000000000000000000000006001600160a01b0316610d9c600080516020611967833981519152546001600160a01b031690565b6001600160a01b031614155b15610dc65760405163703e46dd60e11b815260040160405180910390fd5b565b6000546001600160a01b03163314610d1e57604051635fc483c560e01b815260040160405180910390fd5b816001600160a01b03166352d1902d6040518163ffffffff1660e01b8152600401602060405180830381865afa925050508015610e4d575060408051601f3d908101601f19168201909252610e4a9181019061191b565b60015b610e7557604051634c9c8ce360e01b81526001600160a01b03831660048201526024016104a5565b6000805160206119678339815191528114610ea657604051632a87526960e21b8152600481018290526024016104a5565b610eb08383610f51565b505050565b306001600160a01b037f00000000000000000000000000000000000000000000000000000000000000001614610dc65760405163703e46dd60e11b815260040160405180910390fd5b6000807ff0c57e16840df040f15088dc2f81fe391c3923bec73e23a9662efc9c229c6a00610ca5565b600080600080610f378686610fa7565b925092509250610f478282610ff4565b5090949350505050565b610f5a826110ad565b6040516001600160a01b038316907fbc7cd75a20ee27fd9adebab32041f755214dbc6bffa90cc0225b39da2e5c2d3b90600090a2805115610f9f57610eb08282611112565b61079b611188565b60008060008351604103610fe15760208401516040850151606086015160001a610fd3888285856111a7565b955095509550505050610fed565b50508151600091506002905b9250925092565b600082600381111561100857611008611934565b03611011575050565b600182600381111561102557611025611934565b036110435760405163f645eedf60e01b815260040160405180910390fd5b600282600381111561105757611057611934565b036110785760405163fce698f760e01b8152600481018290526024016104a5565b600382600381111561108c5761108c611934565b0361079b576040516335e2f38360e21b8152600481018290526024016104a5565b806001600160a01b03163b6000036110e357604051634c9c8ce360e01b81526001600160a01b03821660048201526024016104a5565b60008051602061196783398151915280546001600160a01b0319166001600160a01b0392909216919091179055565b6060600080846001600160a01b03168460405161112f919061194a565b600060405180830381855af49150503d806000811461116a576040519150601f19603f3d011682016040523d82523d6000602084013e61116f565b606091505b509150915061117f858383611276565b95945050505050565b3415610dc65760405163b398979f60e01b815260040160405180910390fd5b600080807f7fffffffffffffffffffffffffffffff5d576e7357a4501ddfe92f46681b20a08411156111e2575060009150600390508261126c565b604080516000808252602082018084528a905260ff891692820192909252606081018790526080810186905260019060a0016020604051602081039080840390855afa158015611236573d6000803e3d6000fd5b5050604051601f1901519150506001600160a01b0381166112625750600092506001915082905061126c565b9250600091508190505b9450945094915050565b60608261128b57611286826112d2565b610366565b81511580156112a257506001600160a01b0384163b155b156112cb57604051639996b31560e01b81526001600160a01b03851660048201526024016104a5565b5080610366565b8051156112e157805160208201fd5b60405163d6bda27560e01b815260040160405180910390fd5b60008060006060848603121561130f57600080fd5b833567ffffffffffffffff81111561132657600080fd5b8401610120818703121561133957600080fd5b95602085013595506040909401359392505050565b60005b83811015611369578181015183820152602001611351565b50506000910152565b602081526000825180602084015261139181604085016020870161134e565b601f01601f19169190910160400192915050565b60008083601f8401126113b757600080fd5b50813567ffffffffffffffff8111156113cf57600080fd5b6020830191508360208260051b85010111156113ea57600080fd5b9250929050565b6000806000806000806060878903121561140a57600080fd5b863567ffffffffffffffff8082111561142257600080fd5b61142e8a838b016113a5565b9098509650602089013591508082111561144757600080fd5b6114538a838b016113a5565b9096509450604089013591508082111561146c57600080fd5b5061147989828a016113a5565b979a9699509497509295939492505050565b6001600160a01b0381168114610d1e57600080fd5b600080604083850312156114b357600080fd5b82356114be8161148b565b946020939093013593505050565b634e487b7160e01b600052604160045260246000fd5b600080604083850312156114f557600080fd5b82356115008161148b565b9150602083013567ffffffffffffffff8082111561151d57600080fd5b818501915085601f83011261153157600080fd5b813581811115611543576115436114cc565b604051601f8201601f19908116603f0116810190838211818310171561156b5761156b6114cc565b8160405282815288602084870101111561158457600080fd5b8260208601602083013760006020848301015280955050505050509250929050565b60008083601f8401126115b857600080fd5b50813567ffffffffffffffff8111156115d057600080fd5b6020830191508360208285010111156113ea57600080fd5b60008060008060006060868803121561160057600080fd5b853561160b8161148b565b9450602086013567ffffffffffffffff8082111561162857600080fd5b61163489838a016115a6565b9096509450604088013591508082111561164d57600080fd5b5061165a888289016115a6565b969995985093965092949392505050565b6000806000806060858703121561168157600080fd5b843561168c8161148b565b935060208501359250604085013567ffffffffffffffff8111156116af57600080fd5b6116bb878288016115a6565b95989497509550505050565b6000602082840312156116d957600080fd5b81356103668161148b565b600181811c908216806116f857607f821691505b60208210810361171857634e487b7160e01b600052602260045260246000fd5b50919050565b634e487b7160e01b600052603260045260246000fd5b6000808335601e1984360301811261174b57600080fd5b83018035915067ffffffffffffffff82111561176657600080fd5b6020019150368190038213156113ea57600080fd5b8183823760009101908152919050565b81835281816020850137506000828201602090810191909152601f909101601f19169091010190565b8481526060602082015260006117ce60608301858761178b565b9050821515604083015295945050505050565b601f821115610eb0576000816000526020600020601f850160051c8101602086101561180a5750805b601f850160051c820191505b8181101561077857828155600101611816565b67ffffffffffffffff831115611841576118416114cc565b6118558361184f83546116e4565b836117e1565b6000601f84116001811461188957600085156118715750838201355b600019600387901b1c1916600186901b1783556106bb565b600083815260209020601f19861690835b828110156118ba578685013582556020948501946001909201910161189a565b50868210156118d75760001960f88860031b161c19848701351681555b505060018560011b0183555050505050565b6040815260006118fd60408301868861178b565b828103602084015261191081858761178b565b979650505050505050565b60006020828403121561192d57600080fd5b5051919050565b634e487b7160e01b600052602160045260246000fd5b6000825161195c81846020870161134e565b919091019291505056fe360894a13ba1a3210667c828492db98dca3e2076cc3735a920a3ca505d382bbca2646970667358221220ed5406f55eebc52a418b2235d2636fcda4b4c3aee4e8777a5809f6ab745e2ff064736f6c63430008180033",
  "linkReferences": {},
  "deployedLinkReferences": {}
}