{
  "_format": "hh-sol-artifact-1",
  "contractName": "TokenVault",
  "sourceName": "contracts/core/TokenVault.sol",
  "abi": [
    {
      "inputs": [
        {
          "internalType": "uint256",
          "name": "_multiSigThreshold",
          "type": "uint256"
        },
        {
          "internalType": "uint256",
          "name": "_requiredSignatures",
          "type": "uint256"
        }
      ],
      "stateMutability": "nonpayable",
      "type": "constructor"
    },
    {
      "inputs": [],
      "name": "AlreadyApproved",
      "type": "error"
    },
    {
      "inputs": [],
      "name": "AlreadyExecuted",
      "type": "error"
    },
    {
      "inputs": [],
      "name": "ArrayLengthMismatch",
      "type": "error"
    },
    {
      "inputs": [],
      "name": "InsufficientApprovals",
      "type": "error"
    },
    {
      "inputs": [],
      "name": "InsufficientBalance",
      "type": "error"
    },
    {
      "inputs": [],
      "name": "InvalidAmount",
      "type": "error"
    },
    {
      "inputs": [],
      "name": "InvalidRecipient",
      "type": "error"
    },
    {
      "inputs": [],
      "name": "NotOperator",
      "type": "error"
    },
    {
      "inputs": [],
      "name": "NotSigner",
      "type": "error"
    },
    {
      "inputs": [
        {
          "internalType": "address",
          "name": "owner",
          "type": "address"
        }
      ],
      "name": "OwnableInvalidOwner",
      "type": "error"
    },
    {
      "inputs": [
        {
          "internalType": "address",
          "name": "account",
          "type": "address"
        }
      ],
      "name": "OwnableUnauthorizedAccount",
      "type": "error"
    },
    {
      "inputs": [],
      "name": "ReentrancyGuardReentrantCall",
      "type": "error"
    },
    {
      "inputs": [
        {
          "internalType": "address",
          "name": "token",
          "type": "address"
        }
      ],
      "name": "SafeERC20FailedOperation",
      "type": "error"
    },
    {
      "inputs": [],
      "name": "TransferFailed",
      "type": "error"
    },
    {
      "anonymous": false,
      "inputs": [
        {
          "indexed": true,
          "internalType": "address",
          "name": "enterprise",
          "type": "address"
        },
        {
          "indexed": true,
          "internalType": "address",
          "name": "token",
          "type": "address"
        },
        {
          "indexed": false,
          "internalType": "uint256",
          "name": "totalAmount",
          "type": "uint256"
        },
        {
          "indexed": false,
          "internalType": "uint256",
          "name": "recipientCount",
          "type": "uint256"
        }
      ],
      "name": "BatchDistributed",
      "type": "event"
    },
    {
      "anonymous": false,
      "inputs": [
        {
          "indexed": true,
          "internalType": "address",
          "name": "enterprise",
          "type": "address"
        },
        {
          "indexed": true,
          "internalType": "address",
          "name": "token",
          "type": "address"
        },
        {
          "indexed": false,
          "internalType": "uint256",
          "name": "amount",
          "type": "uint256"
        }
      ],
      "name": "Deposited",
      "type": "event"
    },
    {
      "anonymous": false,
      "inputs": [
        {
          "indexed": false,
          "internalType": "uint256",
          "name": "oldThreshold",
          "type": "uint256"
        },
        {
          "indexed": false,
          "internalType": "uint256",
          "name": "newThreshold",
          "type": "uint256"
        }
      ],
      "name": "MultiSigThresholdUpdated",
      "type": "event"
    },
    {
      "anonymous": false,
      "inputs": [
        {
          "indexed": true,
          "internalType": "address",
          "name": "operator",
          "type": "address"
        },
        {
          "indexed": false,
          "internalType": "bool",
          "name": "status",
          "type": "bool"
        }
      ],
      "name": "OperatorUpdated",
      "type": "event"
    },
    {
      "anonymous": false,
      "inputs": [
        {
          "indexed": true,
          "internalType": "address",
          "name": "previousOwner",
          "type": "address"
        },
        {
          "indexed": true,
          "internalType": "address",
          "name": "newOwner",
          "type": "address"
        }
      ],
      "name": "OwnershipTransferred",
      "type": "event"
    },
    {
      "anonymous": false,
      "inputs": [
        {
          "indexed": true,
          "internalType": "address",
          "name": "signer",
          "type": "address"
        },
        {
          "indexed": false,
          "internalType": "bool",
          "name": "status",
          "type": "bool"
        }
      ],
      "name": "SignerUpdated",
      "type": "event"
    },
    {
      "anonymous": false,
      "inputs": [
        {
          "indexed": true,
          "internalType": "bytes32",
          "name": "requestId",
          "type": "bytes32"
        },
        {
          "indexed": true,
          "internalType": "address",
          "name": "signer",
          "type": "address"
        }
      ],
      "name": "WithdrawalApproved",
      "type": "event"
    },
    {
      "anonymous": false,
      "inputs": [
        {
          "indexed": true,
          "internalType": "bytes32",
          "name": "requestId",
          "type": "bytes32"
        }
      ],
      "name": "WithdrawalExecuted",
      "type": "event"
    },
    {
      "anonymous": false,
      "inputs": [
        {
          "indexed": true,
          "internalType": "bytes32",
          "name": "requestId",
          "type": "bytes32"
        },
        {
          "indexed": true,
          "internalType": "address",
          "name": "enterprise",
          "type": "address"
        },
        {
          "indexed": false,
          "internalType": "address",
          "name": "token",
          "type": "address"
        },
        {
          "indexed": false,
          "internalType": "uint256",
          "name": "amount",
          "type": "uint256"
        }
      ],
      "name": "WithdrawalRequested",
      "type": "event"
    },
    {
      "anonymous": false,
      "inputs": [
        {
          "indexed": true,
          "internalType": "address",
          "name": "enterprise",
          "type": "address"
        },
        {
          "indexed": true,
          "internalType": "address",
          "name": "token",
          "type": "address"
        },
        {
          "indexed": false,
          "internalType": "uint256",
          "name": "amount",
          "type": "uint256"
        },
        {
          "indexed": true,
          "internalType": "address",
          "name": "recipient",
          "type": "address"
        }
      ],
      "name": "Withdrawn",
      "type": "event"
    },
    {
      "inputs": [],
      "name": "ETH_ADDRESS",
      "outputs": [
        {
          "internalType": "address",
          "name": "",
          "type": "address"
        }
      ],
      "stateMutability": "view",
      "type": "function"
    },
    {
      "inputs": [
        {
          "internalType": "bytes32",
          "name": "requestId",
          "type": "bytes32"
        }
      ],
      "name": "approveWithdrawal",
      "outputs": [],
      "stateMutability": "nonpayable",
      "type": "function"
    },
    {
      "inputs": [
        {
          "internalType": "address",
          "name": "enterprise",
          "type": "address"
        },
        {
          "internalType": "address",
          "name": "token",
          "type": "address"
        },
        {
          "internalType": "address[]",
          "name": "recipients",
          "type": "address[]"
        },
        {
          "internalType": "uint256[]",
          "name": "amounts",
          "type": "uint256[]"
        }
      ],
      "name": "batchDistribute",
      "outputs": [],
      "stateMutability": "nonpayable",
      "type": "function"
    },
    {
      "inputs": [],
      "name": "depositETH",
      "outputs": [],
      "stateMutability": "payable",
      "type": "function"
    },
    {
      "inputs": [
        {
          "internalType": "address",
          "name": "token",
          "type": "address"
        },
        {
          "internalType": "uint256",
          "name": "amount",
          "type": "uint256"
        }
      ],
      "name": "depositToken",
      "outputs": [],
      "stateMutability": "nonpayable",
      "type": "function"
    },
    {
      "inputs": [
        {
          "internalType": "address",
          "name": "enterprise",
          "type": "address"
        },
        {
          "internalType": "address",
          "name": "token",
          "type": "address"
        },
        {
          "internalType": "address",
          "name": "recipient",
          "type": "address"
        },
        {
          "internalType": "uint256",
          "name": "amount",
          "type": "uint256"
        }
      ],
      "name": "distribute",
      "outputs": [],
      "stateMutability": "nonpayable",
      "type": "function"
    },
    {
      "inputs": [
        {
          "internalType": "address",
          "name": "",
          "type": "address"
        },
        {
          "internalType": "address",
          "name": "",
          "type": "address"
        }
      ],
      "name": "enterpriseBalances",
      "outputs": [
        {
          "internalType": "uint256",
          "name": "",
          "type": "uint256"
        }
      ],
      "stateMutability": "view",
      "type": "function"
    },
    {
      "inputs": [
        {
          "internalType": "address",
          "name": "enterprise",
          "type": "address"
        },
        {
          "internalType": "address",
          "name": "token",
          "type": "address"
        }
      ],
      "name": "getBalance",
      "outputs": [
        {
          "internalType": "uint256",
          "name": "",
          "type": "uint256"
        }
      ],
      "stateMutability": "view",
      "type": "function"
    },
    {
      "inputs": [
        {
          "internalType": "address",
          "name": "addr",
          "type": "address"
        }
      ],
      "name": "isOperator",
      "outputs": [
        {
          "internalType": "bool",
          "name": "",
          "type": "bool"
        }
      ],
      "stateMutability": "view",
      "type": "function"
    },
    {
      "inputs": [
        {
          "internalType": "address",
          "name": "addr",
          "type": "address"
        }
      ],
      "name": "isSigner",
      "outputs": [
        {
          "internalType": "bool",
          "name": "",
          "type": "bool"
        }
      ],
      "stateMutability": "view",
      "type": "function"
    },
    {
      "inputs": [],
      "name": "multiSigThreshold",
      "outputs": [
        {
          "internalType": "uint256",
          "name": "",
          "type": "uint256"
        }
      ],
      "stateMutability": "view",
      "type": "function"
    },
    {
      "inputs": [
        {
          "internalType": "address",
          "name": "",
          "type": "address"
        }
      ],
      "name": "operators",
      "outputs": [
        {
          "internalType": "bool",
          "name": "",
          "type": "bool"
        }
      ],
      "stateMutability": "view",
      "type": "function"
    },
    {
      "inputs": [],
      "name": "owner",
      "outputs": [
        {
          "internalType": "address",
          "name": "",
          "type": "address"
        }
      ],
      "stateMutability": "view",
      "type": "function"
    },
    {
      "inputs": [
        {
          "internalType": "bytes32",
          "name": "",
          "type": "bytes32"
        }
      ],
      "name": "pendingWithdrawals",
      "outputs": [
        {
          "internalType": "address",
          "name": "enterprise",
          "type": "address"
        },
        {
          "internalType": "address",
          "name": "token",
          "type": "address"
        },
        {
          "internalType": "uint256",
          "name": "amount",
          "type": "uint256"
        },
        {
          "internalType": "address",
          "name": "recipient",
          "type": "address"
        },
        {
          "internalType": "uint256",
          "name": "approvalCount",
          "type": "uint256"
        },
        {
          "internalType": "bool",
          "name": "executed",
          "type": "bool"
        }
      ],
      "stateMutability": "view",
      "type": "function"
    },
    {
      "inputs": [],
      "name": "renounceOwnership",
      "outputs": [],
      "stateMutability": "nonpayable",
      "type": "function"
    },
    {
      "inputs": [],
      "name": "requiredSignatures",
      "outputs": [
        {
          "internalType": "uint256",
          "name": "",
          "type": "uint256"
        }
      ],
      "stateMutability": "view",
      "type": "function"
    },
    {
      "inputs": [
        {
          "internalType": "uint256",
          "name": "newThreshold",
          "type": "uint256"
        }
      ],
      "name": "setMultiSigThreshold",
      "outputs": [],
      "stateMutability": "nonpayable",
      "type": "function"
    },
    {
      "inputs": [
        {
          "internalType": "address",
          "name": "operator",
          "type": "address"
        },
        {
          "internalType": "bool",
          "name": "status",
          "type": "bool"
        }
      ],
      "name": "setOperator",
      "outputs": [],
      "stateMutability": "nonpayable",
      "type": "function"
    },
    {
      "inputs": [
        {
          "internalType": "uint256",
          "name": "newRequired",
          "type": "uint256"
        }
      ],
      "name": "setRequiredSignatures",
      "outputs": [],
      "stateMutability": "nonpayable",
      "type": "function"
    },
    {
      "inputs": [
        {
          "internalType": "address",
          "name": "signer",
          "type": "address"
        },
        {
          "internalType": "bool",
          "name": "status",
          "type": "bool"
        }
      ],
      "name": "setSigner",
      "outputs": [],
      "stateMutability": "nonpayable",
      "type": "function"
    },
    {
      "inputs": [],
      "name": "signerCount",
      "outputs": [
        {
          "internalType": "uint256",
          "name": "",
          "type": "uint256"
        }
      ],
      "stateMutability": "view",
      "type": "function"
    },
    {
      "inputs": [
        {
          "internalType": "address",
          "name": "",
          "type": "address"
        }
      ],
      "name": "signers",
      "outputs": [
        {
          "internalType": "bool",
          "name": "",
          "type": "bool"
        }
      ],
      "stateMutability": "view",
      "type": "function"
    },
    {
      "inputs": [
        {
          "internalType": "address",
          "name": "newOwner",
          "type": "address"
        }
      ],
      "name": "transferOwnership",
      "outputs": [],
      "stateMutability": "nonpayable",
      "type": "function"
    },
    {
      "inputs": [
        {
          "internalType": "address",
          "name": "token",
          "type": "address"
        },
        {
          "internalType": "uint256",
          "name": "amount",
          "type": "uint256"
        },
        {
          "internalType": "address",
          "name": "recipient",
          "type": "address"
        }
      ],
      "name": "withdraw",
      "outputs": [],
      "stateMutability": "nonpayable",
      "type": "function"
    },
    {
      "stateMutability": "payable",
      "type": "receive"
    }
  ],
  "bytecode": "0x608060405234801561001057600080fd5b5060405161191338038061191383398101604081905261002f916100de565b338061005557604051631e4fbdf760e01b81526000600482015260240160405180910390fd5b61005e8161008e565b506001808055600492909255600755336000908152600660205260409020805460ff191682179055600855610102565b600080546001600160a01b038381166001600160a01b0319831681178455604051919092169283917f8be0079c531659141344cd1fd0a4f28419497f9722a3daafe3b4186f6b6457e09190a35050565b600080604083850312156100f157600080fd5b505080516020909101519092909150565b611802806101116000396000f3fe60806040526004361061014f5760003560e01c80637ca548c6116100b6578063a734f06e1161006f578063a734f06e14610449578063b7f06ebe1461045e578063c4e61acb146104ff578063d4fac45d14610537578063f2fde38b1461057d578063f6326fb31461059d57600080fd5b80637ca548c6146103725780637d2b9cc0146103885780637df73e27146103a857806384535b2f146103e15780638d068043146104015780638da5cb5b1461041757600080fd5b8063558a729711610108578063558a7297146102ad57806369328dec146102cd5780636d70f7ae146102ed578063715018a61461030d578063736c0d5b1461032257806376770a9c1461035257600080fd5b806313e7c9d8146101c257806316f51de01461020757806331cb610514610229578063338b5dea146102495780634badfeb214610269578063509d35231461028d57600080fd5b366101bd573360009081526002602090815260408083208380529091528120805434929061017e90849061150c565b909155505060405134815260009033907f8752a472e571a816aea92eec8dae9baf628e840f4929fbcc2d155e6233ff68a79060200160405180910390a3005b600080fd5b3480156101ce57600080fd5b506101f26101dd36600461153b565b60036020526000908152604090205460ff1681565b60405190151581526020015b60405180910390f35b34801561021357600080fd5b506102276102223660046115a9565b6105a5565b005b34801561023557600080fd5b5061022761024436600461163a565b6108d7565b34801561025557600080fd5b50610227610264366004611676565b6109c5565b34801561027557600080fd5b5061027f60045481565b6040519081526020016101fe565b34801561029957600080fd5b506102276102a83660046116a0565b610a9e565b3480156102b957600080fd5b506102276102c836600461163a565b610c0c565b3480156102d957600080fd5b506102276102e83660046116b9565b610c6c565b3480156102f957600080fd5b506101f261030836600461153b565b610e39565b34801561031957600080fd5b50610227610e73565b34801561032e57600080fd5b506101f261033d36600461153b565b60066020526000908152604090205460ff1681565b34801561035e57600080fd5b5061022761036d3660046116f5565b610e87565b34801561037e57600080fd5b5061027f60085481565b34801561039457600080fd5b506102276103a33660046116a0565b6110a4565b3480156103b457600080fd5b506101f26103c336600461153b565b6001600160a01b031660009081526006602052604090205460ff1690565b3480156103ed57600080fd5b506102276103fc3660046116a0565b6110fc565b34801561040d57600080fd5b5061027f60075481565b34801561042357600080fd5b506000546001600160a01b03165b6040516001600160a01b0390911681526020016101fe565b34801561045557600080fd5b50610431600081565b34801561046a57600080fd5b506104c16104793660046116a0565b60056020819052600091825260409091208054600182015460028301546003840154600485015494909501546001600160a01b03938416959284169491939092169160ff1686565b604080516001600160a01b039788168152958716602087015285019390935293166060830152608082019290925290151560a082015260c0016101fe565b34801561050b57600080fd5b5061027f61051a366004611740565b600260209081526000928352604080842090915290825290205481565b34801561054357600080fd5b5061027f610552366004611740565b6001600160a01b03918216600090815260026020908152604080832093909416825291909152205490565b34801561058957600080fd5b5061022761059836600461153b565b611149565b610227611187565b3360009081526003602052604090205460ff161580156105d057506000546001600160a01b03163314155b156105ee57604051631f0853c160e21b815260040160405180910390fd5b6105f6611211565b8281146106165760405163512509d360e11b815260040160405180910390fd5b60008390036106385760405163162908e360e11b815260040160405180910390fd5b6000805b828110156106725783838281811061065657610656611773565b9050602002013582610668919061150c565b915060010161063c565b506001600160a01b038088166000908152600260209081526040808320938a16835292905220548111156106b957604051631e9acf1760e31b815260040160405180910390fd5b6001600160a01b038088166000908152600260209081526040808320938a16835292905290812080548392906106f0908490611789565b90915550600090505b8481101561087b57600086868381811061071557610715611773565b905060200201602081019061072a919061153b565b6001600160a01b03160361075157604051634e46966960e11b815260040160405180910390fd5b6001600160a01b03871661081757600086868381811061077357610773611773565b9050602002016020810190610788919061153b565b6001600160a01b03168585848181106107a3576107a3611773565b9050602002013560405160006040518083038185875af1925050503d80600081146107ea576040519150601f19603f3d011682016040523d82523d6000602084013e6107ef565b606091505b5050905080610811576040516312171d8360e31b815260040160405180910390fd5b50610873565b61087386868381811061082c5761082c611773565b9050602002016020810190610841919061153b565b85858481811061085357610853611773565b90506020020135896001600160a01b031661123b9092919063ffffffff16565b6001016106f9565b5060408051828152602081018690526001600160a01b0380891692908a16917f3a6cb90f8569e63dfad1f0bf32ceb2220c98c4788ce96fd2a415ce24c8a1988f910160405180910390a3506108cf60018055565b505050505050565b6108df61129a565b80801561090557506001600160a01b03821660009081526006602052604090205460ff16155b15610924576008805490600061091a8361179c565b9190505550610965565b8015801561094a57506001600160a01b03821660009081526006602052604090205460ff165b15610965576008805490600061095f836117b5565b91905055505b6001600160a01b038216600081815260066020908152604091829020805460ff191685151590811790915591519182527ffcaa24b1276bfa7dbf77797c0a984b9df924acbeaabd48cd2f1b0eca379b78fa91015b60405180910390a25050565b806000036109e65760405163162908e360e11b815260040160405180910390fd5b6001600160a01b038216610a0d5760405163162908e360e11b815260040160405180910390fd5b610a226001600160a01b0383163330846112c7565b3360009081526002602090815260408083206001600160a01b038616845290915281208054839290610a5590849061150c565b90915550506040518181526001600160a01b0383169033907f8752a472e571a816aea92eec8dae9baf628e840f4929fbcc2d155e6233ff68a79060200160405180910390a35050565b3360009081526006602052604090205460ff16610ace5760405163143606b960e31b815260040160405180910390fd5b60008181526005602081905260409091209081015460ff1615610b0457604051630dc1019760e01b815260040160405180910390fd5b33600090815260068201602052604090205460ff1615610b375760405163080fc0bd60e11b815260040160405180910390fd5b3360009081526006820160205260408120805460ff1916600117905560048201805491610b638361179c565b9091555050604051339083907f9b7fb9ebb11af49db7704d786ccb0cf052943df0b062f6da40ff1670ff005da090600090a3600754816004015410610c08578054600182015460028301546003840154610bcd936001600160a01b03908116938116929116611300565b60058101805460ff1916600117905560405182907fe62bf00505a94450f807975aa95e190b09784a61d64cf3b07d27da679ff0206590600090a25b5050565b610c1461129a565b6001600160a01b038216600081815260036020908152604091829020805460ff191685151590811790915591519182527f966c160e1c4dbc7df8d69af4ace01e9297c3cf016397b7914971f2fbfa32672d91016109b9565b610c74611211565b81600003610c955760405163162908e360e11b815260040160405180910390fd5b6001600160a01b038116610cbc57604051634e46966960e11b815260040160405180910390fd5b3360009081526002602090815260408083206001600160a01b0387168452909152902054821115610d0057604051631e9acf1760e31b815260040160405180910390fd5b6004548210158015610d1457506001600754115b15610e1f576040516bffffffffffffffffffffffff1933606090811b8216602084015285811b821660348401526048830185905283901b16606882015242607c820152600090609c0160408051808303601f190181528282528051602091820120600081815260058084528482208054336001600160a01b03199182168117835560018301805483166001600160a01b038f8116918217909255600285018e9055600385018054909416918d16919091179092556004830194909455918101805460ff191690559086529285018890529094509092909184917fd89225fa3953f7baaf511bce7da272ea2a51c3a73326cd118dd39885902afa64910160405180910390a35050610e2b565b610e2b33848484611300565b610e3460018055565b505050565b6001600160a01b03811660009081526003602052604081205460ff1680610e6d57506000546001600160a01b038381169116145b92915050565b610e7b61129a565b610e856000611435565b565b3360009081526003602052604090205460ff16158015610eb257506000546001600160a01b03163314155b15610ed057604051631f0853c160e21b815260040160405180910390fd5b610ed8611211565b80600003610ef95760405163162908e360e11b815260040160405180910390fd5b6001600160a01b038216610f2057604051634e46966960e11b815260040160405180910390fd5b6001600160a01b03808516600090815260026020908152604080832093871683529290522054811115610f6657604051631e9acf1760e31b815260040160405180910390fd5b6001600160a01b03808516600090815260026020908152604080832093871683529290529081208054839290610f9d908490611789565b90915550506001600160a01b03831661102a576000826001600160a01b03168260405160006040518083038185875af1925050503d8060008114610ffd576040519150601f19603f3d011682016040523d82523d6000602084013e611002565b606091505b5050905080611024576040516312171d8360e31b815260040160405180910390fd5b5061103e565b61103e6001600160a01b038416838361123b565b816001600160a01b0316836001600160a01b0316856001600160a01b03167f889d364b5102aee044ff370e2e6a836584e5618a16dce4f5b191459cf3903e588460405161108d91815260200190565b60405180910390a461109e60018055565b50505050565b6110ac61129a565b6008548111156110f75760405162461bcd60e51b8152602060048201526011602482015270151bdbc81b585b9e481c995c5d5a5c9959607a1b60448201526064015b60405180910390fd5b600755565b61110461129a565b600480549082905560408051828152602081018490527fbd292a7289a87eb4eebfcaff6175547f6079da3a62df13b6a3a2a0044b445a50910160405180910390a15050565b61115161129a565b6001600160a01b03811661117b57604051631e4fbdf760e01b8152600060048201526024016110ee565b61118481611435565b50565b346000036111a85760405163162908e360e11b815260040160405180910390fd5b336000908152600260209081526040808320838052909152812080543492906111d290849061150c565b909155505060405134815260009033907f8752a472e571a816aea92eec8dae9baf628e840f4929fbcc2d155e6233ff68a79060200160405180910390a3565b60026001540361123457604051633ee5aeb560e01b815260040160405180910390fd5b6002600155565b6040516001600160a01b03838116602483015260448201839052610e3491859182169063a9059cbb906064015b604051602081830303815290604052915060e01b6020820180516001600160e01b038381831617835250505050611485565b6000546001600160a01b03163314610e855760405163118cdaa760e01b81523360048201526024016110ee565b6040516001600160a01b03848116602483015283811660448301526064820183905261109e9186918216906323b872dd90608401611268565b6001600160a01b03808516600090815260026020908152604080832093871683529290529081208054849290611337908490611789565b90915550506001600160a01b0383166113c4576000816001600160a01b03168360405160006040518083038185875af1925050503d8060008114611397576040519150601f19603f3d011682016040523d82523d6000602084013e61139c565b606091505b50509050806113be576040516312171d8360e31b815260040160405180910390fd5b506113d8565b6113d86001600160a01b038416828461123b565b806001600160a01b0316836001600160a01b0316856001600160a01b03167f889d364b5102aee044ff370e2e6a836584e5618a16dce4f5b191459cf3903e588560405161142791815260200190565b60405180910390a450505050565b600080546001600160a01b038381166001600160a01b0319831681178455604051919092169283917f8be0079c531659141344cd1fd0a4f28419497f9722a3daafe3b4186f6b6457e09190a35050565b600080602060008451602086016000885af1806114a8576040513d6000823e3d81fd5b50506000513d915081156114c05780600114156114cd565b6001600160a01b0384163b155b1561109e57604051635274afe760e01b81526001600160a01b03851660048201526024016110ee565b634e487b7160e01b600052601160045260246000fd5b80820180821115610e6d57610e6d6114f6565b80356001600160a01b038116811461153657600080fd5b919050565b60006020828403121561154d57600080fd5b6115568261151f565b9392505050565b60008083601f84011261156f57600080fd5b50813567ffffffffffffffff81111561158757600080fd5b6020830191508360208260051b85010111156115a257600080fd5b9250929050565b600080600080600080608087890312156115c257600080fd5b6115cb8761151f565b95506115d96020880161151f565b9450604087013567ffffffffffffffff808211156115f657600080fd5b6116028a838b0161155d565b9096509450606089013591508082111561161b57600080fd5b5061162889828a0161155d565b979a9699509497509295939492505050565b6000806040838503121561164d57600080fd5b6116568361151f565b91506020830135801515811461166b57600080fd5b809150509250929050565b6000806040838503121561168957600080fd5b6116928361151f565b946020939093013593505050565b6000602082840312156116b257600080fd5b5035919050565b6000806000606084860312156116ce57600080fd5b6116d78461151f565b9250602084013591506116ec6040850161151f565b90509250925092565b6000806000806080858703121561170b57600080fd5b6117148561151f565b93506117226020860161151f565b92506117306040860161151f565b9396929550929360600135925050565b6000806040838503121561175357600080fd5b61175c8361151f565b915061176a6020840161151f565b90509250929050565b634e487b7160e01b600052603260045260246000fd5b81810381811115610e6d57610e6d6114f6565b6000600182016117ae576117ae6114f6565b5060010190565b6000816117c4576117c46114f6565b50600019019056fea26469706673582212206e9fece2b0a5c86f1df4349024433e1b4ba34e3ba4dae61204f445f7a574297164736f6c63430008180033",
  "linkReferences": {},
  "deployedLinkReferences": {}
}