{
  "_format": "hh-sol-artifact-1",
  "contractName": "ProxyAdmin",
  "sourceName": "contracts/proxy/ProxyAdmin.sol",
  "abi": [
    {
      "inputs": [
        {
          "internalType": "address[]",
          "name": "_signers",
          "type": "address[]"
        },
        {
          "internalType": "uint256",
          "name": "_threshold",
          "type": "uint256"
        },
        {
          "internalType": "uint256",
          "name": "_upgradeDelay",
          "type": "uint256"
        }
      ],
      "stateMutability": "nonpayable",
      "type": "constructor"
    },
    {
      "anonymous": false,
      "inputs": [
        {
          "indexed": true,
          "internalType": "address",
          "name": "previousOwner",
          "type": "address"
        },
        {
          "indexed": true,
          "internalType": "address",
          "name": "newOwner",
          "type": "address"
        }
      ],
      "name": "OwnershipTransferred",
      "type": "event"
    },
    {
      "anonymous": false,
      "inputs": [
        {
          "indexed": true,
          "internalType": "address",
          "name": "signer",
          "type": "address"
        }
      ],
      "name": "SignerAdded",
      "type": "event"
    },
    {
      "anonymous": false,
      "inputs": [
        {
          "indexed": true,
          "internalType": "address",
          "name": "signer",
          "type": "address"
        }
      ],
      "name": "SignerRemoved",
      "type": "event"
    },
    {
      "anonymous": false,
      "inputs": [
        {
          "indexed": false,
          "internalType": "uint256",
          "name": "oldThreshold",
          "type": "uint256"
        },
        {
          "indexed": false,
          "internalType": "uint256",
          "name": "newThreshold",
          "type": "uint256"
        }
      ],
      "name": "ThresholdUpdated",
      "type": "event"
    },
    {
      "anonymous": false,
      "inputs": [
        {
          "indexed": true,
          "internalType": "bytes32",
          "name": "upgradeId",
          "type": "bytes32"
        },
        {
          "indexed": true,
          "internalType": "address",
          "name": "signer",
          "type": "address"
        }
      ],
      "name": "UpgradeApproved",
      "type": "event"
    },
    {
      "anonymous": false,
      "inputs": [
        {
          "indexed": true,
          "internalType": "bytes32",
          "name": "upgradeId",
          "type": "bytes32"
        }
      ],
      "name": "UpgradeCancelled",
      "type": "event"
    },
    {
      "anonymous": false,
      "inputs": [
        {
          "indexed": true,
          "internalType": "bytes32",
          "name": "upgradeId",
          "type": "bytes32"
        },
        {
          "indexed": true,
          "internalType": "address",
          "name": "proxy",
          "type": "address"
        },
        {
          "indexed": true,
          "internalType": "address",
          "name": "newImplementation",
          "type": "address"
        }
      ],
      "name": "UpgradeExecuted",
      "type": "event"
    },
    {
      "anonymous": false,
      "inputs": [
        {
          "indexed": true,
          "internalType": "bytes32",
          "name": "upgradeId",
          "type": "bytes32"
        },
        {
          "indexed": true,
          "internalType": "address",
          "name": "proxy",
          "type": "address"
        },
        {
          "indexed": true,
          "internalType": "address",
          "name": "newImplementation",
          "type": "address"
        },
        {
          "indexed": false,
          "internalType": "uint256",
          "name": "scheduledAt",
          "type": "uint256"
        },
        {
          "indexed": false,
          "internalType": "uint256",
          "name": "executeAfter",
          "type": "uint256"
        }
      ],
      "name": "UpgradeScheduled",
      "type": "event"
    },
    {
      "inputs": [
        {
          "internalType": "address",
          "name": "signer",
          "type": "address"
        }
      ],
      "name": "addSigner",
      "outputs": [],
      "stateMutability": "nonpayable",
      "type": "function"
    },
    {
      "inputs": [
        {
          "internalType": "bytes32",
          "name": "upgradeId",
          "type": "bytes32"
        }
      ],
      "name": "approveUpgrade",
      "outputs": [],
      "stateMutability": "nonpayable",
      "type": "function"
    },
    {
      "inputs": [
        {
          "internalType": "bytes32",
          "name": "upgradeId",
          "type": "bytes32"
        }
      ],
      "name": "cancelUpgrade",
      "outputs": [],
      "stateMutability": "nonpayable",
      "type": "function"
    },
    {
      "inputs": [
        {
          "internalType": "bytes32",
          "name": "upgradeId",
          "type": "bytes32"
        }
      ],
      "name": "executeUpgrade",
      "outputs": [],
      "stateMutability": "nonpayable",
      "type": "function"
    },
    {
      "inputs": [],
      "name": "getPendingUpgradeCount",
      "outputs": [
        {
          "internalType": "uint256",
          "name": "",
          "type": "uint256"
        }
      ],
      "stateMutability": "view",
      "type": "function"
    },
    {
      "inputs": [],
      "name": "getSigners",
      "outputs": [
        {
          "internalType": "address[]",
          "name": "",
          "type": "address[]"
        }
      ],
      "stateMutability": "view",
      "type": "function"
    },
    {
      "inputs": [
        {
          "internalType": "bytes32",
          "name": "upgradeId",
          "type": "bytes32"
        }
      ],
      "name": "getUpgrade",
      "outputs": [
        {
          "internalType": "address",
          "name": "proxy",
          "type": "address"
        },
        {
          "internalType": "address",
          "name": "newImplementation",
          "type": "address"
        },
        {
          "internalType": "uint256",
          "name": "scheduledAt",
          "type": "uint256"
        },
        {
          "internalType": "uint256",
          "name": "approvals",
          "type": "uint256"
        },
        {
          "internalType": "bool",
          "name": "executed",
          "type": "bool"
        },
        {
          "internalType": "bool",
          "name": "cancelled",
          "type": "bool"
        }
      ],
      "stateMutability": "view",
      "type": "function"
    },
    {
      "inputs": [
        {
          "internalType": "bytes32",
          "name": "upgradeId",
          "type": "bytes32"
        },
        {
          "internalType": "address",
          "name": "signer",
          "type": "address"
        }
      ],
      "name": "hasApproved",
      "outputs": [
        {
          "internalType": "bool",
          "name": "",
          "type": "bool"
        }
      ],
      "stateMutability": "view",
      "type": "function"
    },
    {
      "inputs": [
        {
          "internalType": "address",
          "name": "account",
          "type": "address"
        }
      ],
      "name": "isSigner",
      "outputs": [
        {
          "internalType": "bool",
          "name": "",
          "type": "bool"
        }
      ],
      "stateMutability": "view",
      "type": "function"
    },
    {
      "inputs": [],
      "name": "owner",
      "outputs": [
        {
          "internalType": "address",
          "name": "",
          "type": "address"
        }
      ],
      "stateMutability": "view",
      "type": "function"
    },
    {
      "inputs": [
        {
          "internalType": "bytes32",
          "name": "",
          "type": "bytes32"
        }
      ],
      "name": "pendingUpgrades",
      "outputs": [
        {
          "internalType": "address",
          "name": "proxy",
          "type": "address"
        },
        {
          "internalType": "address",
          "name": "newImplementation",
          "type": "address"
        },
        {
          "internalType": "bytes",
          "name": "data",
          "type": "bytes"
        },
        {
          "internalType": "uint256",
          "name": "scheduledAt",
          "type": "uint256"
        },
        {
          "internalType": "uint256",
          "name": "approvals",
          "type": "uint256"
        },
        {
          "internalType": "bool",
          "name": "executed",
          "type": "bool"
        },
        {
          "internalType": "bool",
          "name": "cancelled",
          "type": "bool"
        }
      ],
      "stateMutability": "view",
      "type": "function"
    },
    {
      "inputs": [
        {
          "internalType": "address",
          "name": "signer",
          "type": "address"
        }
      ],
      "name": "removeSigner",
      "outputs": [],
      "stateMutability": "nonpayable",
      "type": "function"
    },
    {
      "inputs": [
        {
          "internalType": "address",
          "name": "proxy",
          "type": "address"
        },
        {
          "internalType": "address",
          "name": "newImplementation",
          "type": "address"
        },
        {
          "internalType": "bytes",
          "name": "data",
          "type": "bytes"
        }
      ],
      "name": "scheduleUpgrade",
      "outputs": [
        {
          "internalType": "bytes32",
          "name": "upgradeId",
          "type": "bytes32"
        }
      ],
      "stateMutability": "nonpayable",
      "type": "function"
    },
    {
      "inputs": [
        {
          "internalType": "uint256",
          "name": "",
          "type": "uint256"
        }
      ],
      "name": "signers",
      "outputs": [
        {
          "internalType": "address",
          "name": "",
          "type": "address"
        }
      ],
      "stateMutability": "view",
      "type": "function"
    },
    {
      "inputs": [],
      "name": "threshold",
      "outputs": [
        {
          "internalType": "uint256",
          "name": "",
          "type": "uint256"
        }
      ],
      "stateMutability": "view",
      "type": "function"
    },
    {
      "inputs": [
        {
          "internalType": "address",
          "name": "newOwner",
          "type": "address"
        }
      ],
      "name": "transferOwnership",
      "outputs": [],
      "stateMutability": "nonpayable",
      "type": "function"
    },
    {
      "inputs": [
        {
          "internalType": "uint256",
          "name": "newThreshold",
          "type": "uint256"
        }
      ],
      "name": "updateThreshold",
      "outputs": [],
      "stateMutability": "nonpayable",
      "type": "function"
    },
    {
      "inputs": [],
      "name": "upgradeDelay",
      "outputs": [
        {
          "internalType": "uint256",
          "name": "",
          "type": "uint256"
        }
      ],
      "stateMutability": "view",
      "type": "function"
    },
    {
      "inputs": [
        {
          "internalType": "uint256",
          "name": "",
          "type": "uint256"
        }
      ],
      "name": "upgradeIds",
      "outputs": [
        {
          "internalType": "bytes32",
          "name": "",
          "type": "bytes32"
        }
      ],
      "stateMutability": "view",
      "type": "function"
    }
  ],
  "bytecode": "0x60806040523480156200001157600080fd5b5060405162001adb38038062001adb833981016040819052620000349162000204565b6002835110156200007c5760405162461bcd60e51b815260206004820152600d60248201526c4d696e2032207369676e65727360981b60448201526064015b60405180910390fd5b600182101580156200008f575082518211155b620000d15760405162461bcd60e51b8152602060048201526011602482015270125b9d985b1a59081d1a1c995cda1bdb19607a1b604482015260640162000073565b610e10811015620001185760405162461bcd60e51b815260206004820152601060248201526f4d696e203120686f75722064656c617960801b604482015260640162000073565b600080546001600160a01b0319163317905582516200013f90600190602086019062000150565b5060029190915560035550620002e9565b828054828255906000526020600020908101928215620001a8579160200282015b82811115620001a857825182546001600160a01b0319166001600160a01b0390911617825560209092019160019091019062000171565b50620001b6929150620001ba565b5090565b5b80821115620001b65760008155600101620001bb565b634e487b7160e01b600052604160045260246000fd5b80516001600160a01b0381168114620001ff57600080fd5b919050565b6000806000606084860312156200021a57600080fd5b83516001600160401b03808211156200023257600080fd5b818601915086601f8301126200024757600080fd5b81516020828211156200025e576200025e620001d1565b8160051b604051601f19603f83011681018181108682111715620002865762000286620001d1565b60405292835281830193508481018201928a841115620002a557600080fd5b948201945b83861015620002ce57620002be86620001e7565b85529482019493820193620002aa565b91890151604090990151919a98995090979650505050505050565b6117e280620002f96000396000f3fe608060405234801561001057600080fd5b50600436106101215760003560e01c80637e48d4ea116100ad5780639562a35f116100715780639562a35f146102d0578063d7d7442f146102e3578063d8c17114146102f6578063eb12d61e1461031c578063f2fde38b1461032f57600080fd5b80637e48d4ea14610284578063862647e51461028d57806387e490c6146102a05780638da5cb5b146102a857806394cf795e146102bb57600080fd5b8063337781ea116100f4578063337781ea146102215780633b6520cb1461023457806342cde4e8146102475780636a994e101461025e5780637df73e271461027157600080fd5b80630e316ab7146101265780632079fb9a1461013b57806322f153db1461016b57806323cdc3f1146101fe575b600080fd5b610139610134366004611283565b610342565b005b61014e6101493660046112a5565b610570565b6040516001600160a01b0390911681526020015b60405180910390f35b6101c26101793660046112a5565b6000908152600460208190526040909120805460018201546003830154938301546006909301546001600160a01b03928316959290911693929160ff8083169261010090041690565b604080516001600160a01b03978816815296909516602087015293850192909252606084015215156080830152151560a082015260c001610162565b61021161020c3660046112be565b61059a565b6040519015158152602001610162565b61013961022f3660046112a5565b6105ca565b6101396102423660046112a5565b6106d6565b61025060025481565b604051908152602001610162565b61025061026c3660046112ea565b610980565b61021161027f366004611283565b610bf4565b61025060035481565b61025061029b3660046112a5565b610bff565b610250610c20565b60005461014e906001600160a01b031681565b6102c3610ca7565b6040516101629190611378565b6101396102de3660046112a5565b610d09565b6101396102f13660046112a5565b610e7f565b6103096103043660046112a5565b610f41565b60405161016297969594939291906113c5565b61013961032a366004611283565b611019565b61013961033d366004611283565b611148565b6000546001600160a01b031633146103755760405162461bcd60e51b815260040161036c90611459565b60405180910390fd5b61037e81611208565b61039a5760405162461bcd60e51b815260040161036c9061147c565b600254600180546103ab91906114b6565b10156103f95760405162461bcd60e51b815260206004820152601760248201527f576f756c642076696f6c617465207468726573686f6c64000000000000000000604482015260640161036c565b60015460021061043b5760405162461bcd60e51b815260206004820152600d60248201526c4d696e2032207369676e65727360981b604482015260640161036c565b60005b60015481101561053857816001600160a01b031660018281548110610465576104656114c9565b6000918252602090912001546001600160a01b031603610530576001805461048e9082906114b6565b8154811061049e5761049e6114c9565b600091825260209091200154600180546001600160a01b0390921691839081106104ca576104ca6114c9565b9060005260206000200160006101000a8154816001600160a01b0302191690836001600160a01b031602179055506001805480610509576105096114df565b600082815260209020810160001990810180546001600160a01b0319169055019055610538565b60010161043e565b506040516001600160a01b038216907f3525e22824a8a7df2c9a6029941c824cf95b6447f1e13d5128fd3826d35afe8b90600090a250565b6001818154811061058057600080fd5b6000918252602090912001546001600160a01b0316905081565b60008281526004602090815260408083206001600160a01b038516845260050190915290205460ff165b92915050565b6000546001600160a01b031633146105f45760405162461bcd60e51b815260040161036c90611459565b600081815260046020526040902060038101546106235760405162461bcd60e51b815260040161036c906114f5565b600681015460ff16156106485760405162461bcd60e51b815260040161036c9061151c565b6006810154610100900460ff16156106965760405162461bcd60e51b8152602060048201526011602482015270105b1c9958591e4818d85b98d95b1b1959607a1b604482015260640161036c565b60068101805461ff00191661010017905560405182907f3581f2526e53a276effa5116f0579562b23947cbd75fbabdeb6049aa7f5c50e690600090a25050565b6106df33611208565b6106fb5760405162461bcd60e51b815260040161036c9061147c565b6000818152600460205260409020600381015461072a5760405162461bcd60e51b815260040161036c906114f5565b600681015460ff161561074f5760405162461bcd60e51b815260040161036c9061151c565b6006810154610100900460ff16156107955760405162461bcd60e51b815260206004820152600960248201526810d85b98d95b1b195960ba1b604482015260640161036c565b600254816004015410156107e45760405162461bcd60e51b8152602060048201526016602482015275496e73756666696369656e7420617070726f76616c7360501b604482015260640161036c565b60035481600301546107f69190611546565b42101561083c5760405162461bcd60e51b8152602060048201526014602482015273151a5b595b1bd8dac81b9bdd08195e1c1a5c995960621b604482015260640161036c565b60068101805460ff191660011790556002810180546000919061085e90611559565b905011156108d7578054600182015460405163278f794360e11b81526001600160a01b0392831692634f1ef286926108a092911690600286019060040161158d565b600060405180830381600087803b1580156108ba57600080fd5b505af11580156108ce573d6000803e3d6000fd5b5050505061093a565b80546001820154604051631b2ce7f360e11b81526001600160a01b039182166004820152911690633659cfe690602401600060405180830381600087803b15801561092157600080fd5b505af1158015610935573d6000803e3d6000fd5b505050505b600181015481546040516001600160a01b03928316929091169084907f100978a3e646dacf67f839f3dd9531bc29dcb670abdcda201697e681683b532390600090a45050565b600061098b33611208565b6109a75760405162461bcd60e51b815260040161036c9061147c565b6001600160a01b0385166109ed5760405162461bcd60e51b815260206004820152600d60248201526c496e76616c69642070726f787960981b604482015260640161036c565b6001600160a01b038416610a3c5760405162461bcd60e51b815260206004820152601660248201527524b73b30b634b21034b6b83632b6b2b73a30ba34b7b760511b604482015260640161036c565b8484848442604051602001610a5595949392919061162d565b60408051601f1981840301815291815281516020928301206000818152600490935291206003015490915015610ac15760405162461bcd60e51b8152602060048201526011602482015270105b1c9958591e481cd8da19591d5b1959607a1b604482015260640161036c565b600081815260046020526040902080546001600160a01b038088166001600160a01b03199283161783556001830180549188169190921617905560028101610b0a8486836116d2565b50426003808301829055600160048401819055336000908152600580860160205260408220805460ff1916841790558054928301815590527f036b6384b5eca791c62761152d0c79bb0604c104a5fb6f4eb0703f3154bb3db001849055546001600160a01b03878116929089169185917ff0467bd5c58476633d1573a22e68de873d748428681533ca769a0853ffbbda1e91610ba69082611546565b6040805192835260208301919091520160405180910390a4604051339083907fb978fa15daa3aadfb6ca294bf294091823a9a33d84969db2e50b58ad377fd86090600090a350949350505050565b60006105c482611208565b60058181548110610c0f57600080fd5b600091825260209091200154905081565b600080805b600554811015610ca15760006004600060058481548110610c4857610c486114c9565b600091825260208083209091015483528201929092526040019020600681015490915060ff16158015610c8557506006810154610100900460ff16155b15610c985782610c9481611793565b9350505b50600101610c25565b50919050565b60606001805480602002602001604051908101604052809291908181526020018280548015610cff57602002820191906000526020600020905b81546001600160a01b03168152600190910190602001808311610ce1575b5050505050905090565b610d1233611208565b610d2e5760405162461bcd60e51b815260040161036c9061147c565b60008181526004602052604090206003810154610d5d5760405162461bcd60e51b815260040161036c906114f5565b600681015460ff1615610d825760405162461bcd60e51b815260040161036c9061151c565b6006810154610100900460ff1615610dc85760405162461bcd60e51b815260206004820152600960248201526810d85b98d95b1b195960ba1b604482015260640161036c565b33600090815260058201602052604090205460ff1615610e1d5760405162461bcd60e51b815260206004820152601060248201526f105b1c9958591e48185c1c1c9bdd995960821b604482015260640161036c565b3360009081526005820160205260408120805460ff1916600117905560048201805491610e4983611793565b9091555050604051339083907fb978fa15daa3aadfb6ca294bf294091823a9a33d84969db2e50b58ad377fd86090600090a35050565b6000546001600160a01b03163314610ea95760405162461bcd60e51b815260040161036c90611459565b60018110158015610ebc57506001548111155b610efc5760405162461bcd60e51b8152602060048201526011602482015270125b9d985b1a59081d1a1c995cda1bdb19607a1b604482015260640161036c565b600280549082905560408051828152602081018490527fb06a54caabe58475c86c2bf9df3f2f06dd1213e9e10659c293117fe4893b274b910160405180910390a15050565b6004602052600090815260409020805460018201546002830180546001600160a01b03938416949290931692610f7690611559565b80601f0160208091040260200160405190810160405280929190818152602001828054610fa290611559565b8015610fef5780601f10610fc457610100808354040283529160200191610fef565b820191906000526020600020905b815481529060010190602001808311610fd257829003601f168201915b50505050600383015460048401546006909401549293909290915060ff8082169161010090041687565b6000546001600160a01b031633146110435760405162461bcd60e51b815260040161036c90611459565b6001600160a01b03811661108a5760405162461bcd60e51b815260206004820152600e60248201526d24b73b30b634b21039b4b3b732b960911b604482015260640161036c565b61109381611208565b156110d15760405162461bcd60e51b815260206004820152600e60248201526d20b63932b0b23c9039b4b3b732b960911b604482015260640161036c565b60018054808201825560009182527fb10e2d527612073b26eecdfd717e6a320cf44b4afac2b0732d9fcbe2b7fa0cf60180546001600160a01b0319166001600160a01b03841690811790915560405190917f47d1c22a25bb3a5d4e481b9b1e6944c2eade3181a0a20b495ed61d35b5323f2491a250565b6000546001600160a01b031633146111725760405162461bcd60e51b815260040161036c90611459565b6001600160a01b0381166111b85760405162461bcd60e51b815260206004820152600d60248201526c24b73b30b634b21037bbb732b960991b604482015260640161036c565b600080546001600160a01b038381166001600160a01b0319831681178455604051919092169283917f8be0079c531659141344cd1fd0a4f28419497f9722a3daafe3b4186f6b6457e09190a35050565b6000805b60015481101561125e57826001600160a01b031660018281548110611233576112336114c9565b6000918252602090912001546001600160a01b0316036112565750600192915050565b60010161120c565b50600092915050565b80356001600160a01b038116811461127e57600080fd5b919050565b60006020828403121561129557600080fd5b61129e82611267565b9392505050565b6000602082840312156112b757600080fd5b5035919050565b600080604083850312156112d157600080fd5b823591506112e160208401611267565b90509250929050565b6000806000806060858703121561130057600080fd5b61130985611267565b935061131760208601611267565b9250604085013567ffffffffffffffff8082111561133457600080fd5b818701915087601f83011261134857600080fd5b81358181111561135757600080fd5b88602082850101111561136957600080fd5b95989497505060200194505050565b6020808252825182820181905260009190848201906040850190845b818110156113b95783516001600160a01b031683529284019291840191600101611394565b50909695505050505050565b600060018060a01b03808a1683526020818a16602085015260e06040850152885191508160e085015260005b8281101561140e57898101820151858201610100015281016113f1565b5050610100600081838601015280601f19601f8401168501019250505085606083015284608083015261144560a083018515159052565b82151560c083015298975050505050505050565b6020808252600990820152682737ba1037bbb732b960b91b604082015260600190565b6020808252600a90820152692737ba1039b4b3b732b960b11b604082015260600190565b634e487b7160e01b600052601160045260246000fd5b818103818111156105c4576105c46114a0565b634e487b7160e01b600052603260045260246000fd5b634e487b7160e01b600052603160045260246000fd5b6020808252600d908201526c139bdd081cd8da19591d5b1959609a1b604082015260600190565b60208082526010908201526f105b1c9958591e48195e1958dd5d195960821b604082015260600190565b808201808211156105c4576105c46114a0565b600181811c9082168061156d57607f821691505b602082108103610ca157634e487b7160e01b600052602260045260246000fd5b60018060a01b03831681526000602060406020840152600084546115b081611559565b80604087015260606001808416600081146115d257600181146115ee5761161e565b60ff19851660608a0152606084151560051b8a0101955061161e565b89600052602060002060005b858110156116155781548b82018601529083019088016115fa565b8a016060019650505b50939998505050505050505050565b60006bffffffffffffffffffffffff19808860601b168352808760601b16601484015250838560288401375060289201918201526048019392505050565b634e487b7160e01b600052604160045260246000fd5b601f8211156116cd576000816000526020600020601f850160051c810160208610156116aa5750805b601f850160051c820191505b818110156116c9578281556001016116b6565b5050505b505050565b67ffffffffffffffff8311156116ea576116ea61166b565b6116fe836116f88354611559565b83611681565b6000601f841160018114611732576000851561171a5750838201355b600019600387901b1c1916600186901b17835561178c565b600083815260209020601f19861690835b828110156117635786850135825560209485019460019092019101611743565b50868210156117805760001960f88860031b161c19848701351681555b505060018560011b0183555b5050505050565b6000600182016117a5576117a56114a0565b506001019056fea26469706673582212202c2ebeb2df99f7d62c65d703ff17143d3b372d2d8dfa1f25e17c599aa3bdc61764736f6c63430008180033",
  "linkReferences": {},
  "deployedLinkReferences": {}
}